{
  "_format": "hh-sol-artifact-1",
  "contractName": "NFTMarket",
  "sourceName": "contracts/NFTMarket.sol",
  "abi": [
    {
      "inputs": [],
      "stateMutability": "nonpayable",
      "type": "constructor"
    },
    {
      "anonymous": false,
      "inputs": [
        {
          "indexed": true,
          "internalType": "uint256",
          "name": "itemId",
          "type": "uint256"
        },
        {
          "indexed": true,
          "internalType": "address",
          "name": "nftContract",
          "type": "address"
        },
        {
          "indexed": true,
          "internalType": "uint256",
          "name": "tokenId",
          "type": "uint256"
        },
        {
          "indexed": false,
          "internalType": "address",
          "name": "seller",
          "type": "address"
        },
        {
          "indexed": false,
          "internalType": "address",
          "name": "owner",
          "type": "address"
        },
        {
          "indexed": false,
          "internalType": "uint256",
          "name": "price",
          "type": "uint256"
        },
        {
          "indexed": false,
          "internalType": "bool",
          "name": "sold",
          "type": "bool"
        },
        {
          "indexed": false,
          "internalType": "address",
          "name": "creator",
          "type": "address"
        }
      ],
      "name": "MarketItemCreated",
      "type": "event"
    },
    {
      "inputs": [
        {
          "internalType": "address",
          "name": "nftContract",
          "type": "address"
        },
        {
          "internalType": "uint256",
          "name": "tokenId",
          "type": "uint256"
        },
        {
          "internalType": "uint256",
          "name": "price",
          "type": "uint256"
        }
      ],
      "name": "createMarketItem",
      "outputs": [],
      "stateMutability": "payable",
      "type": "function"
    },
    {
      "inputs": [
        {
          "internalType": "address",
          "name": "nftContract",
          "type": "address"
        },
        {
          "internalType": "uint256",
          "name": "itemId",
          "type": "uint256"
        }
      ],
      "name": "createMarketSale",
      "outputs": [],
      "stateMutability": "payable",
      "type": "function"
    },
    {
      "inputs": [],
      "name": "fetchItemsCreated",
      "outputs": [
        {
          "components": [
            {
              "internalType": "uint256",
              "name": "itemId",
              "type": "uint256"
            },
            {
              "internalType": "address",
              "name": "nftContract",
              "type": "address"
            },
            {
              "internalType": "uint256",
              "name": "tokenId",
              "type": "uint256"
            },
            {
              "internalType": "address payable",
              "name": "seller",
              "type": "address"
            },
            {
              "internalType": "address payable",
              "name": "owner",
              "type": "address"
            },
            {
              "internalType": "uint256",
              "name": "price",
              "type": "uint256"
            },
            {
              "internalType": "bool",
              "name": "sold",
              "type": "bool"
            },
            {
              "internalType": "address payable",
              "name": "creator",
              "type": "address"
            }
          ],
          "internalType": "struct NFTMarket.MarketItem[]",
          "name": "",
          "type": "tuple[]"
        }
      ],
      "stateMutability": "view",
      "type": "function"
    },
    {
      "inputs": [],
      "name": "fetchItemsListed",
      "outputs": [
        {
          "components": [
            {
              "internalType": "uint256",
              "name": "itemId",
              "type": "uint256"
            },
            {
              "internalType": "address",
              "name": "nftContract",
              "type": "address"
            },
            {
              "internalType": "uint256",
              "name": "tokenId",
              "type": "uint256"
            },
            {
              "internalType": "address payable",
              "name": "seller",
              "type": "address"
            },
            {
              "internalType": "address payable",
              "name": "owner",
              "type": "address"
            },
            {
              "internalType": "uint256",
              "name": "price",
              "type": "uint256"
            },
            {
              "internalType": "bool",
              "name": "sold",
              "type": "bool"
            },
            {
              "internalType": "address payable",
              "name": "creator",
              "type": "address"
            }
          ],
          "internalType": "struct NFTMarket.MarketItem[]",
          "name": "",
          "type": "tuple[]"
        }
      ],
      "stateMutability": "view",
      "type": "function"
    },
    {
      "inputs": [],
      "name": "fetchMarketItems",
      "outputs": [
        {
          "components": [
            {
              "internalType": "uint256",
              "name": "itemId",
              "type": "uint256"
            },
            {
              "internalType": "address",
              "name": "nftContract",
              "type": "address"
            },
            {
              "internalType": "uint256",
              "name": "tokenId",
              "type": "uint256"
            },
            {
              "internalType": "address payable",
              "name": "seller",
              "type": "address"
            },
            {
              "internalType": "address payable",
              "name": "owner",
              "type": "address"
            },
            {
              "internalType": "uint256",
              "name": "price",
              "type": "uint256"
            },
            {
              "internalType": "bool",
              "name": "sold",
              "type": "bool"
            },
            {
              "internalType": "address payable",
              "name": "creator",
              "type": "address"
            }
          ],
          "internalType": "struct NFTMarket.MarketItem[]",
          "name": "",
          "type": "tuple[]"
        }
      ],
      "stateMutability": "view",
      "type": "function"
    },
    {
      "inputs": [],
      "name": "fetchMyNFTs",
      "outputs": [
        {
          "components": [
            {
              "internalType": "uint256",
              "name": "itemId",
              "type": "uint256"
            },
            {
              "internalType": "address",
              "name": "nftContract",
              "type": "address"
            },
            {
              "internalType": "uint256",
              "name": "tokenId",
              "type": "uint256"
            },
            {
              "internalType": "address payable",
              "name": "seller",
              "type": "address"
            },
            {
              "internalType": "address payable",
              "name": "owner",
              "type": "address"
            },
            {
              "internalType": "uint256",
              "name": "price",
              "type": "uint256"
            },
            {
              "internalType": "bool",
              "name": "sold",
              "type": "bool"
            },
            {
              "internalType": "address payable",
              "name": "creator",
              "type": "address"
            }
          ],
          "internalType": "struct NFTMarket.MarketItem[]",
          "name": "",
          "type": "tuple[]"
        }
      ],
      "stateMutability": "view",
      "type": "function"
    },
    {
      "inputs": [],
      "name": "getListingPrice",
      "outputs": [
        {
          "internalType": "uint256",
          "name": "",
          "type": "uint256"
        }
      ],
      "stateMutability": "view",
      "type": "function"
    },
    {
      "inputs": [
        {
          "internalType": "address",
          "name": "nftContract",
          "type": "address"
        },
        {
          "internalType": "uint256",
          "name": "tokenId",
          "type": "uint256"
        },
        {
          "internalType": "uint256",
          "name": "price",
          "type": "uint256"
        }
      ],
      "name": "listMarketItem",
      "outputs": [],
      "stateMutability": "payable",
      "type": "function"
    },
    {
      "inputs": [
        {
          "internalType": "address",
          "name": "nftContract",
          "type": "address"
        },
        {
          "internalType": "uint256",
          "name": "tokenId",
          "type": "uint256"
        },
        {
          "internalType": "address",
          "name": "destination",
          "type": "address"
        }
      ],
      "name": "transferItem",
      "outputs": [],
      "stateMutability": "payable",
      "type": "function"
    }
  ],
  "bytecode": "0x60806040526658d15e176280006004556658d15e1762800060055534801561002657600080fd5b50600160008190555033600360006101000a81548173ffffffffffffffffffffffffffffffffffffffff021916908373ffffffffffffffffffffffffffffffffffffffff16021790555061243c8061007f6000396000f3fe6080604052600436106100865760003560e01c806345f8fa801161005957806345f8fa801461012857806358eb2df51461015357806399ef76a01461016f578063c23b139e1461018b578063f064c32e146101a757610086565b80630f08efe01461008b57806312e85585146100b6578063202e3740146100e1578063213c4e1a1461010c575b600080fd5b34801561009757600080fd5b506100a06101d2565b6040516100ad919061203c565b60405180910390f35b3480156100c257600080fd5b506100cb61053f565b6040516100d891906120fe565b60405180910390f35b3480156100ed57600080fd5b506100f6610549565b604051610103919061203c565b60405180910390f35b61012660048036038101906101219190611d32565b61093a565b005b34801561013457600080fd5b5061013d610b95565b60405161014a919061203c565b60405180910390f35b61016d60048036038101906101689190611d32565b610f86565b005b61018960048036038101906101849190611ce3565b611350565b005b6101a560048036038101906101a09190611ca7565b611512565b005b3480156101b357600080fd5b506101bc61176d565b6040516101c9919061203c565b60405180910390f35b606060006101e06001611b5e565b905060006101ee6002611b5e565b6101f86001611b5e565b61020291906121b9565b90506000808267ffffffffffffffff811115610247577f4e487b7100000000000000000000000000000000000000000000000000000000600052604160045260246000fd5b60405190808252806020026020018201604052801561028057816020015b61026d611bde565b8152602001906001900390816102655790505b50905060005b8481101561053457600073ffffffffffffffffffffffffffffffffffffffff16600660006001846102b79190612163565b815260200190815260200160002060040160009054906101000a900473ffffffffffffffffffffffffffffffffffffffff1673ffffffffffffffffffffffffffffffffffffffff1614156105215760006001826103149190612163565b905060006006600083815260200190815260200160002090508060405180610100016040529081600082015481526020016001820160009054906101000a900473ffffffffffffffffffffffffffffffffffffffff1673ffffffffffffffffffffffffffffffffffffffff1673ffffffffffffffffffffffffffffffffffffffff168152602001600282015481526020016003820160009054906101000a900473ffffffffffffffffffffffffffffffffffffffff1673ffffffffffffffffffffffffffffffffffffffff1673ffffffffffffffffffffffffffffffffffffffff1681526020016004820160009054906101000a900473ffffffffffffffffffffffffffffffffffffffff1673ffffffffffffffffffffffffffffffffffffffff1673ffffffffffffffffffffffffffffffffffffffff168152602001600582015481526020016006820160009054906101000a900460ff161515151581526020016006820160019054906101000a900473ffffffffffffffffffffffffffffffffffffffff1673ffffffffffffffffffffffffffffffffffffffff1673ffffffffffffffffffffffffffffffffffffffff1681525050848681518110610504577f4e487b7100000000000000000000000000000000000000000000000000000000600052603260045260246000fd5b602002602001018190525060018561051c9190612163565b945050505b808061052c90612247565b915050610286565b508094505050505090565b6000600454905090565b606060006105576001611b5e565b905060008060005b83811015610600573373ffffffffffffffffffffffffffffffffffffffff166006600060018461058f9190612163565b815260200190815260200160002060040160009054906101000a900473ffffffffffffffffffffffffffffffffffffffff1673ffffffffffffffffffffffffffffffffffffffff1614156105ed576001836105ea9190612163565b92505b80806105f890612247565b91505061055f565b5060008267ffffffffffffffff811115610643577f4e487b7100000000000000000000000000000000000000000000000000000000600052604160045260246000fd5b60405190808252806020026020018201604052801561067c57816020015b610669611bde565b8152602001906001900390816106615790505b50905060005b8481101561092f573373ffffffffffffffffffffffffffffffffffffffff16600660006001846106b29190612163565b815260200190815260200160002060040160009054906101000a900473ffffffffffffffffffffffffffffffffffffffff1673ffffffffffffffffffffffffffffffffffffffff16141561091c57600060018261070f9190612163565b905060006006600083815260200190815260200160002090508060405180610100016040529081600082015481526020016001820160009054906101000a900473ffffffffffffffffffffffffffffffffffffffff1673ffffffffffffffffffffffffffffffffffffffff1673ffffffffffffffffffffffffffffffffffffffff168152602001600282015481526020016003820160009054906101000a900473ffffffffffffffffffffffffffffffffffffffff1673ffffffffffffffffffffffffffffffffffffffff1673ffffffffffffffffffffffffffffffffffffffff1681526020016004820160009054906101000a900473ffffffffffffffffffffffffffffffffffffffff1673ffffffffffffffffffffffffffffffffffffffff1673ffffffffffffffffffffffffffffffffffffffff168152602001600582015481526020016006820160009054906101000a900460ff161515151581526020016006820160019054906101000a900473ffffffffffffffffffffffffffffffffffffffff1673ffffffffffffffffffffffffffffffffffffffff1673ffffffffffffffffffffffffffffffffffffffff16815250508486815181106108ff577f4e487b7100000000000000000000000000000000000000000000000000000000600052603260045260246000fd5b60200260200101819052506001856109179190612163565b945050505b808061092790612247565b915050610682565b508094505050505090565b3373ffffffffffffffffffffffffffffffffffffffff166006600084815260200190815260200160002060040160009054906101000a900473ffffffffffffffffffffffffffffffffffffffff1673ffffffffffffffffffffffffffffffffffffffff16146109de576040517f08c379a00000000000000000000000000000000000000000000000000000000081526004016109d59061207e565b60405180910390fd5b6004543414610a22576040517f08c379a0000000000000000000000000000000000000000000000000000000008152600401610a199061209e565b60405180910390fd5b60006006600084815260200190815260200160002060060160006101000a81548160ff021916908315150217905550806006600084815260200190815260200160002060050181905550336006600084815260200190815260200160002060030160006101000a81548173ffffffffffffffffffffffffffffffffffffffff021916908373ffffffffffffffffffffffffffffffffffffffff16021790555060006006600084815260200190815260200160002060040160006101000a81548173ffffffffffffffffffffffffffffffffffffffff021916908373ffffffffffffffffffffffffffffffffffffffff160217905550610b216002611b6c565b8273ffffffffffffffffffffffffffffffffffffffff166323b872dd3330856040518463ffffffff1660e01b8152600401610b5e93929190611fb2565b600060405180830381600087803b158015610b7857600080fd5b505af1158015610b8c573d6000803e3d6000fd5b50505050505050565b60606000610ba36001611b5e565b905060008060005b83811015610c4c573373ffffffffffffffffffffffffffffffffffffffff1660066000600184610bdb9190612163565b815260200190815260200160002060030160009054906101000a900473ffffffffffffffffffffffffffffffffffffffff1673ffffffffffffffffffffffffffffffffffffffff161415610c3957600183610c369190612163565b92505b8080610c4490612247565b915050610bab565b5060008267ffffffffffffffff811115610c8f577f4e487b7100000000000000000000000000000000000000000000000000000000600052604160045260246000fd5b604051908082528060200260200182016040528015610cc857816020015b610cb5611bde565b815260200190600190039081610cad5790505b50905060005b84811015610f7b573373ffffffffffffffffffffffffffffffffffffffff1660066000600184610cfe9190612163565b815260200190815260200160002060030160009054906101000a900473ffffffffffffffffffffffffffffffffffffffff1673ffffffffffffffffffffffffffffffffffffffff161415610f68576000600182610d5b9190612163565b905060006006600083815260200190815260200160002090508060405180610100016040529081600082015481526020016001820160009054906101000a900473ffffffffffffffffffffffffffffffffffffffff1673ffffffffffffffffffffffffffffffffffffffff1673ffffffffffffffffffffffffffffffffffffffff168152602001600282015481526020016003820160009054906101000a900473ffffffffffffffffffffffffffffffffffffffff1673ffffffffffffffffffffffffffffffffffffffff1673ffffffffffffffffffffffffffffffffffffffff1681526020016004820160009054906101000a900473ffffffffffffffffffffffffffffffffffffffff1673ffffffffffffffffffffffffffffffffffffffff1673ffffffffffffffffffffffffffffffffffffffff168152602001600582015481526020016006820160009054906101000a900460ff161515151581526020016006820160019054906101000a900473ffffffffffffffffffffffffffffffffffffffff1673ffffffffffffffffffffffffffffffffffffffff1673ffffffffffffffffffffffffffffffffffffffff1681525050848681518110610f4b577f4e487b7100000000000000000000000000000000000000000000000000000000600052603260045260246000fd5b6020026020010181905250600185610f639190612163565b945050505b8080610f7390612247565b915050610cce565b508094505050505090565b60026000541415610fcc576040517f08c379a0000000000000000000000000000000000000000000000000000000008152600401610fc3906120be565b60405180910390fd5b600260008190555060008111611017576040517f08c379a000000000000000000000000000000000000000000000000000000000815260040161100e906120de565b60405180910390fd5b600454341461105b576040517f08c379a00000000000000000000000000000000000000000000000000000000081526004016110529061209e565b60405180910390fd5b6110656001611bc8565b60006110716001611b5e565b90506040518061010001604052808281526020018573ffffffffffffffffffffffffffffffffffffffff1681526020018481526020013373ffffffffffffffffffffffffffffffffffffffff168152602001600073ffffffffffffffffffffffffffffffffffffffff1681526020018381526020016000151581526020013373ffffffffffffffffffffffffffffffffffffffff16815250600660008381526020019081526020016000206000820151816000015560208201518160010160006101000a81548173ffffffffffffffffffffffffffffffffffffffff021916908373ffffffffffffffffffffffffffffffffffffffff1602179055506040820151816002015560608201518160030160006101000a81548173ffffffffffffffffffffffffffffffffffffffff021916908373ffffffffffffffffffffffffffffffffffffffff16021790555060808201518160040160006101000a81548173ffffffffffffffffffffffffffffffffffffffff021916908373ffffffffffffffffffffffffffffffffffffffff16021790555060a0820151816005015560c08201518160060160006101000a81548160ff02191690831515021790555060e08201518160060160016101000a81548173ffffffffffffffffffffffffffffffffffffffff021916908373ffffffffffffffffffffffffffffffffffffffff1602179055509050508373ffffffffffffffffffffffffffffffffffffffff166323b872dd3330866040518463ffffffff1660e01b81526004016112b693929190611fb2565b600060405180830381600087803b1580156112d057600080fd5b505af11580156112e4573d6000803e3d6000fd5b50505050828473ffffffffffffffffffffffffffffffffffffffff16827f7d97da72e950426bedd7ad7228ffd65fade59107955150507e9495a8f1b39aa83360008760003360405161133a959493929190611fe9565b60405180910390a4506001600081905550505050565b3373ffffffffffffffffffffffffffffffffffffffff166006600084815260200190815260200160002060040160009054906101000a900473ffffffffffffffffffffffffffffffffffffffff1673ffffffffffffffffffffffffffffffffffffffff16146113f4576040517f08c379a00000000000000000000000000000000000000000000000000000000081526004016113eb9061207e565b60405180910390fd5b336006600084815260200190815260200160002060030160006101000a81548173ffffffffffffffffffffffffffffffffffffffff021916908373ffffffffffffffffffffffffffffffffffffffff160217905550806006600084815260200190815260200160002060040160006101000a81548173ffffffffffffffffffffffffffffffffffffffff021916908373ffffffffffffffffffffffffffffffffffffffff1602179055508273ffffffffffffffffffffffffffffffffffffffff166323b872dd3383856040518463ffffffff1660e01b81526004016114db93929190611fb2565b600060405180830381600087803b1580156114f557600080fd5b505af1158015611509573d6000803e3d6000fd5b50505050505050565b60026000541415611558576040517f08c379a000000000000000000000000000000000000000000000000000000000815260040161154f906120be565b60405180910390fd5b60026000819055506000600660008381526020019081526020016000206002015490506006600083815260200190815260200160002060030160009054906101000a900473ffffffffffffffffffffffffffffffffffffffff1673ffffffffffffffffffffffffffffffffffffffff166108fc349081150290604051600060405180830381858888f193505050501580156115f7573d6000803e3d6000fd5b508273ffffffffffffffffffffffffffffffffffffffff166323b872dd3033846040518463ffffffff1660e01b815260040161163593929190611fb2565b600060405180830381600087803b15801561164f57600080fd5b505af1158015611663573d6000803e3d6000fd5b50505050336006600084815260200190815260200160002060040160006101000a81548173ffffffffffffffffffffffffffffffffffffffff021916908373ffffffffffffffffffffffffffffffffffffffff16021790555060016006600084815260200190815260200160002060060160006101000a81548160ff0219169083151502179055506116f56002611bc8565b600360009054906101000a900473ffffffffffffffffffffffffffffffffffffffff1673ffffffffffffffffffffffffffffffffffffffff166108fc6004549081150290604051600060405180830381858888f1935050505015801561175f573d6000803e3d6000fd5b505060016000819055505050565b6060600061177b6001611b5e565b905060008060005b83811015611824573373ffffffffffffffffffffffffffffffffffffffff16600660006001846117b39190612163565b815260200190815260200160002060060160019054906101000a900473ffffffffffffffffffffffffffffffffffffffff1673ffffffffffffffffffffffffffffffffffffffff1614156118115760018361180e9190612163565b92505b808061181c90612247565b915050611783565b5060008267ffffffffffffffff811115611867577f4e487b7100000000000000000000000000000000000000000000000000000000600052604160045260246000fd5b6040519080825280602002602001820160405280156118a057816020015b61188d611bde565b8152602001906001900390816118855790505b50905060005b84811015611b53573373ffffffffffffffffffffffffffffffffffffffff16600660006001846118d69190612163565b815260200190815260200160002060060160019054906101000a900473ffffffffffffffffffffffffffffffffffffffff1673ffffffffffffffffffffffffffffffffffffffff161415611b405760006001826119339190612163565b905060006006600083815260200190815260200160002090508060405180610100016040529081600082015481526020016001820160009054906101000a900473ffffffffffffffffffffffffffffffffffffffff1673ffffffffffffffffffffffffffffffffffffffff1673ffffffffffffffffffffffffffffffffffffffff168152602001600282015481526020016003820160009054906101000a900473ffffffffffffffffffffffffffffffffffffffff1673ffffffffffffffffffffffffffffffffffffffff1673ffffffffffffffffffffffffffffffffffffffff1681526020016004820160009054906101000a900473ffffffffffffffffffffffffffffffffffffffff1673ffffffffffffffffffffffffffffffffffffffff1673ffffffffffffffffffffffffffffffffffffffff168152602001600582015481526020016006820160009054906101000a900460ff161515151581526020016006820160019054906101000a900473ffffffffffffffffffffffffffffffffffffffff1673ffffffffffffffffffffffffffffffffffffffff1673ffffffffffffffffffffffffffffffffffffffff1681525050848681518110611b23577f4e487b7100000000000000000000000000000000000000000000000000000000600052603260045260246000fd5b6020026020010181905250600185611b3b9190612163565b945050505b8080611b4b90612247565b9150506118a6565b508094505050505090565b600081600001549050919050565b60008160000154905060008111611bb8576040517f08c379a0000000000000000000000000000000000000000000000000000000008152600401611baf9061205e565b60405180910390fd5b6001810382600001819055505050565b6001816000016000828254019250508190555050565b60405180610100016040528060008152602001600073ffffffffffffffffffffffffffffffffffffffff16815260200160008152602001600073ffffffffffffffffffffffffffffffffffffffff168152602001600073ffffffffffffffffffffffffffffffffffffffff16815260200160008152602001600015158152602001600073ffffffffffffffffffffffffffffffffffffffff1681525090565b600081359050611c8c816123d8565b92915050565b600081359050611ca1816123ef565b92915050565b60008060408385031215611cba57600080fd5b6000611cc885828601611c7d565b9250506020611cd985828601611c92565b9150509250929050565b600080600060608486031215611cf857600080fd5b6000611d0686828701611c7d565b9350506020611d1786828701611c92565b9250506040611d2886828701611c7d565b9150509250925092565b600080600060608486031215611d4757600080fd5b6000611d5586828701611c7d565b9350506020611d6686828701611c92565b9250506040611d7786828701611c92565b9150509250925092565b6000611d8d8383611ef2565b6101008301905092915050565b611da3816121ff565b82525050565b611db2816121ed565b82525050565b611dc1816121ed565b82525050565b6000611dd282612129565b611ddc8185612141565b9350611de783612119565b8060005b83811015611e18578151611dff8882611d81565b9750611e0a83612134565b925050600181019050611deb565b5085935050505092915050565b611e2e81612211565b82525050565b611e3d81612211565b82525050565b6000611e50601b83612152565b9150611e5b826122bf565b602082019050919050565b6000611e73602a83612152565b9150611e7e826122e8565b604082019050919050565b6000611e96602483612152565b9150611ea182612337565b604082019050919050565b6000611eb9601f83612152565b9150611ec482612386565b602082019050919050565b6000611edc601c83612152565b9150611ee7826123af565b602082019050919050565b61010082016000820151611f096000850182611f94565b506020820151611f1c6020850182611da9565b506040820151611f2f6040850182611f94565b506060820151611f426060850182611d9a565b506080820151611f556080850182611d9a565b5060a0820151611f6860a0850182611f94565b5060c0820151611f7b60c0850182611e25565b5060e0820151611f8e60e0850182611d9a565b50505050565b611f9d8161223d565b82525050565b611fac8161223d565b82525050565b6000606082019050611fc76000830186611db8565b611fd46020830185611db8565b611fe16040830184611fa3565b949350505050565b600060a082019050611ffe6000830188611db8565b61200b6020830187611db8565b6120186040830186611fa3565b6120256060830185611e34565b6120326080830184611db8565b9695505050505050565b600060208201905081810360008301526120568184611dc7565b905092915050565b6000602082019050818103600083015261207781611e43565b9050919050565b6000602082019050818103600083015261209781611e66565b9050919050565b600060208201905081810360008301526120b781611e89565b9050919050565b600060208201905081810360008301526120d781611eac565b9050919050565b600060208201905081810360008301526120f781611ecf565b9050919050565b60006020820190506121136000830184611fa3565b92915050565b6000819050602082019050919050565b600081519050919050565b6000602082019050919050565b600082825260208201905092915050565b600082825260208201905092915050565b600061216e8261223d565b91506121798361223d565b9250827fffffffffffffffffffffffffffffffffffffffffffffffffffffffffffffffff038211156121ae576121ad612290565b5b828201905092915050565b60006121c48261223d565b91506121cf8361223d565b9250828210156121e2576121e1612290565b5b828203905092915050565b60006121f88261221d565b9050919050565b600061220a8261221d565b9050919050565b60008115159050919050565b600073ffffffffffffffffffffffffffffffffffffffff82169050919050565b6000819050919050565b60006122528261223d565b91507fffffffffffffffffffffffffffffffffffffffffffffffffffffffffffffffff82141561228557612284612290565b5b600182019050919050565b7f4e487b7100000000000000000000000000000000000000000000000000000000600052601160045260246000fd5b7f436f756e7465723a2064656372656d656e74206f766572666c6f770000000000600082015250565b7f4f6e6c79206974656d206f776e65722063616e20706572666f726d207468697360008201527f206f7065726174696f6e00000000000000000000000000000000000000000000602082015250565b7f5072696365206d75737420626520657175616c20746f206c697374696e67207060008201527f7269636500000000000000000000000000000000000000000000000000000000602082015250565b7f5265656e7472616e637947756172643a207265656e7472616e742063616c6c00600082015250565b7f5072696365206d757374206265206174206c6561737420312077656900000000600082015250565b6123e1816121ed565b81146123ec57600080fd5b50565b6123f88161223d565b811461240357600080fd5b5056fea26469706673582212205dbef4dd5d0dfed9b7d94e0b8d68f91d36c258b71c0e307e909d621a9016eac764736f6c63430008040033",
  "linkReferences": {},
  "deployedLinkReferences": {}
}