{
  "_format": "hh-sol-artifact-1",
  "contractName": "NFTMarket",
  "sourceName": "contracts/NFTMarket.sol",
  "abi": [
    {
      "inputs": [],
      "stateMutability": "nonpayable",
      "type": "constructor"
    },
    {
      "anonymous": false,
      "inputs": [
        {
          "indexed": true,
          "internalType": "uint256",
          "name": "itemId",
          "type": "uint256"
        },
        {
          "indexed": true,
          "internalType": "address",
          "name": "nftContract",
          "type": "address"
        },
        {
          "indexed": true,
          "internalType": "uint256",
          "name": "tokenId",
          "type": "uint256"
        },
        {
          "indexed": false,
          "internalType": "address",
          "name": "seller",
          "type": "address"
        },
        {
          "indexed": false,
          "internalType": "address",
          "name": "owner",
          "type": "address"
        },
        {
          "indexed": false,
          "internalType": "uint256",
          "name": "price",
          "type": "uint256"
        },
        {
          "indexed": false,
          "internalType": "bool",
          "name": "sold",
          "type": "bool"
        },
        {
          "indexed": false,
          "internalType": "address",
          "name": "creator",
          "type": "address"
        }
      ],
      "name": "MarketItemCreated",
      "type": "event"
    },
    {
      "inputs": [
        {
          "internalType": "address",
          "name": "nftContract",
          "type": "address"
        },
        {
          "internalType": "uint256",
          "name": "tokenId",
          "type": "uint256"
        },
        {
          "internalType": "uint256",
          "name": "price",
          "type": "uint256"
        }
      ],
      "name": "createMarketItem",
      "outputs": [],
      "stateMutability": "payable",
      "type": "function"
    },
    {
      "inputs": [
        {
          "internalType": "address",
          "name": "nftContract",
          "type": "address"
        },
        {
          "internalType": "uint256",
          "name": "itemId",
          "type": "uint256"
        }
      ],
      "name": "createMarketSale",
      "outputs": [],
      "stateMutability": "payable",
      "type": "function"
    },
    {
      "inputs": [],
      "name": "fetchItemsCreated",
      "outputs": [
        {
          "components": [
            {
              "internalType": "uint256",
              "name": "itemId",
              "type": "uint256"
            },
            {
              "internalType": "address",
              "name": "nftContract",
              "type": "address"
            },
            {
              "internalType": "uint256",
              "name": "tokenId",
              "type": "uint256"
            },
            {
              "internalType": "address payable",
              "name": "seller",
              "type": "address"
            },
            {
              "internalType": "address payable",
              "name": "owner",
              "type": "address"
            },
            {
              "internalType": "uint256",
              "name": "price",
              "type": "uint256"
            },
            {
              "internalType": "bool",
              "name": "sold",
              "type": "bool"
            },
            {
              "internalType": "address payable",
              "name": "creator",
              "type": "address"
            }
          ],
          "internalType": "struct NFTMarket.MarketItem[]",
          "name": "",
          "type": "tuple[]"
        }
      ],
      "stateMutability": "view",
      "type": "function"
    },
    {
      "inputs": [],
      "name": "fetchItemsListed",
      "outputs": [
        {
          "components": [
            {
              "internalType": "uint256",
              "name": "itemId",
              "type": "uint256"
            },
            {
              "internalType": "address",
              "name": "nftContract",
              "type": "address"
            },
            {
              "internalType": "uint256",
              "name": "tokenId",
              "type": "uint256"
            },
            {
              "internalType": "address payable",
              "name": "seller",
              "type": "address"
            },
            {
              "internalType": "address payable",
              "name": "owner",
              "type": "address"
            },
            {
              "internalType": "uint256",
              "name": "price",
              "type": "uint256"
            },
            {
              "internalType": "bool",
              "name": "sold",
              "type": "bool"
            },
            {
              "internalType": "address payable",
              "name": "creator",
              "type": "address"
            }
          ],
          "internalType": "struct NFTMarket.MarketItem[]",
          "name": "",
          "type": "tuple[]"
        }
      ],
      "stateMutability": "view",
      "type": "function"
    },
    {
      "inputs": [],
      "name": "fetchMarketItems",
      "outputs": [
        {
          "components": [
            {
              "internalType": "uint256",
              "name": "itemId",
              "type": "uint256"
            },
            {
              "internalType": "address",
              "name": "nftContract",
              "type": "address"
            },
            {
              "internalType": "uint256",
              "name": "tokenId",
              "type": "uint256"
            },
            {
              "internalType": "address payable",
              "name": "seller",
              "type": "address"
            },
            {
              "internalType": "address payable",
              "name": "owner",
              "type": "address"
            },
            {
              "internalType": "uint256",
              "name": "price",
              "type": "uint256"
            },
            {
              "internalType": "bool",
              "name": "sold",
              "type": "bool"
            },
            {
              "internalType": "address payable",
              "name": "creator",
              "type": "address"
            }
          ],
          "internalType": "struct NFTMarket.MarketItem[]",
          "name": "",
          "type": "tuple[]"
        }
      ],
      "stateMutability": "view",
      "type": "function"
    },
    {
      "inputs": [],
      "name": "fetchMyNFTs",
      "outputs": [
        {
          "components": [
            {
              "internalType": "uint256",
              "name": "itemId",
              "type": "uint256"
            },
            {
              "internalType": "address",
              "name": "nftContract",
              "type": "address"
            },
            {
              "internalType": "uint256",
              "name": "tokenId",
              "type": "uint256"
            },
            {
              "internalType": "address payable",
              "name": "seller",
              "type": "address"
            },
            {
              "internalType": "address payable",
              "name": "owner",
              "type": "address"
            },
            {
              "internalType": "uint256",
              "name": "price",
              "type": "uint256"
            },
            {
              "internalType": "bool",
              "name": "sold",
              "type": "bool"
            },
            {
              "internalType": "address payable",
              "name": "creator",
              "type": "address"
            }
          ],
          "internalType": "struct NFTMarket.MarketItem[]",
          "name": "",
          "type": "tuple[]"
        }
      ],
      "stateMutability": "view",
      "type": "function"
    },
    {
      "inputs": [],
      "name": "getListingPrice",
      "outputs": [
        {
          "internalType": "uint256",
          "name": "",
          "type": "uint256"
        }
      ],
      "stateMutability": "view",
      "type": "function"
    },
    {
      "inputs": [
        {
          "internalType": "address",
          "name": "nftContract",
          "type": "address"
        },
        {
          "internalType": "uint256",
          "name": "tokenId",
          "type": "uint256"
        },
        {
          "internalType": "uint256",
          "name": "price",
          "type": "uint256"
        }
      ],
      "name": "listMarketItem",
      "outputs": [],
      "stateMutability": "payable",
      "type": "function"
    },
    {
      "inputs": [
        {
          "internalType": "address",
          "name": "nftContract",
          "type": "address"
        },
        {
          "internalType": "uint256",
          "name": "tokenId",
          "type": "uint256"
        },
        {
          "internalType": "address",
          "name": "destination",
          "type": "address"
        }
      ],
      "name": "transferItem",
      "outputs": [],
      "stateMutability": "payable",
      "type": "function"
    }
  ],
  "bytecode": "0x60806040526658d15e176280006004556658d15e1762800060055534801561002657600080fd5b50600160008190555033600360006101000a81548173ffffffffffffffffffffffffffffffffffffffff021916908373ffffffffffffffffffffffffffffffffffffffff1602179055506124588061007f6000396000f3fe6080604052600436106100865760003560e01c806345f8fa801161005957806345f8fa801461012857806358eb2df51461015357806399ef76a01461016f578063c23b139e1461018b578063f064c32e146101a757610086565b80630f08efe01461008b57806312e85585146100b6578063202e3740146100e1578063213c4e1a1461010c575b600080fd5b34801561009757600080fd5b506100a06101d2565b6040516100ad9190612058565b60405180910390f35b3480156100c257600080fd5b506100cb61053f565b6040516100d8919061211a565b60405180910390f35b3480156100ed57600080fd5b506100f6610549565b6040516101039190612058565b60405180910390f35b61012660048036038101906101219190611d4e565b61093a565b005b34801561013457600080fd5b5061013d610b95565b60405161014a9190612058565b60405180910390f35b61016d60048036038101906101689190611d4e565b610f86565b005b61018960048036038101906101849190611cff565b611350565b005b6101a560048036038101906101a09190611cc3565b611512565b005b3480156101b357600080fd5b506101bc611789565b6040516101c99190612058565b60405180910390f35b606060006101e06001611b7a565b905060006101ee6002611b7a565b6101f86001611b7a565b61020291906121d5565b90506000808267ffffffffffffffff811115610247577f4e487b7100000000000000000000000000000000000000000000000000000000600052604160045260246000fd5b60405190808252806020026020018201604052801561028057816020015b61026d611bfa565b8152602001906001900390816102655790505b50905060005b8481101561053457600073ffffffffffffffffffffffffffffffffffffffff16600660006001846102b7919061217f565b815260200190815260200160002060040160009054906101000a900473ffffffffffffffffffffffffffffffffffffffff1673ffffffffffffffffffffffffffffffffffffffff161415610521576000600182610314919061217f565b905060006006600083815260200190815260200160002090508060405180610100016040529081600082015481526020016001820160009054906101000a900473ffffffffffffffffffffffffffffffffffffffff1673ffffffffffffffffffffffffffffffffffffffff1673ffffffffffffffffffffffffffffffffffffffff168152602001600282015481526020016003820160009054906101000a900473ffffffffffffffffffffffffffffffffffffffff1673ffffffffffffffffffffffffffffffffffffffff1673ffffffffffffffffffffffffffffffffffffffff1681526020016004820160009054906101000a900473ffffffffffffffffffffffffffffffffffffffff1673ffffffffffffffffffffffffffffffffffffffff1673ffffffffffffffffffffffffffffffffffffffff168152602001600582015481526020016006820160009054906101000a900460ff161515151581526020016006820160019054906101000a900473ffffffffffffffffffffffffffffffffffffffff1673ffffffffffffffffffffffffffffffffffffffff1673ffffffffffffffffffffffffffffffffffffffff1681525050848681518110610504577f4e487b7100000000000000000000000000000000000000000000000000000000600052603260045260246000fd5b602002602001018190525060018561051c919061217f565b945050505b808061052c90612263565b915050610286565b508094505050505090565b6000600454905090565b606060006105576001611b7a565b905060008060005b83811015610600573373ffffffffffffffffffffffffffffffffffffffff166006600060018461058f919061217f565b815260200190815260200160002060040160009054906101000a900473ffffffffffffffffffffffffffffffffffffffff1673ffffffffffffffffffffffffffffffffffffffff1614156105ed576001836105ea919061217f565b92505b80806105f890612263565b91505061055f565b5060008267ffffffffffffffff811115610643577f4e487b7100000000000000000000000000000000000000000000000000000000600052604160045260246000fd5b60405190808252806020026020018201604052801561067c57816020015b610669611bfa565b8152602001906001900390816106615790505b50905060005b8481101561092f573373ffffffffffffffffffffffffffffffffffffffff16600660006001846106b2919061217f565b815260200190815260200160002060040160009054906101000a900473ffffffffffffffffffffffffffffffffffffffff1673ffffffffffffffffffffffffffffffffffffffff16141561091c57600060018261070f919061217f565b905060006006600083815260200190815260200160002090508060405180610100016040529081600082015481526020016001820160009054906101000a900473ffffffffffffffffffffffffffffffffffffffff1673ffffffffffffffffffffffffffffffffffffffff1673ffffffffffffffffffffffffffffffffffffffff168152602001600282015481526020016003820160009054906101000a900473ffffffffffffffffffffffffffffffffffffffff1673ffffffffffffffffffffffffffffffffffffffff1673ffffffffffffffffffffffffffffffffffffffff1681526020016004820160009054906101000a900473ffffffffffffffffffffffffffffffffffffffff1673ffffffffffffffffffffffffffffffffffffffff1673ffffffffffffffffffffffffffffffffffffffff168152602001600582015481526020016006820160009054906101000a900460ff161515151581526020016006820160019054906101000a900473ffffffffffffffffffffffffffffffffffffffff1673ffffffffffffffffffffffffffffffffffffffff1673ffffffffffffffffffffffffffffffffffffffff16815250508486815181106108ff577f4e487b7100000000000000000000000000000000000000000000000000000000600052603260045260246000fd5b6020026020010181905250600185610917919061217f565b945050505b808061092790612263565b915050610682565b508094505050505090565b3373ffffffffffffffffffffffffffffffffffffffff166006600084815260200190815260200160002060040160009054906101000a900473ffffffffffffffffffffffffffffffffffffffff1673ffffffffffffffffffffffffffffffffffffffff16146109de576040517f08c379a00000000000000000000000000000000000000000000000000000000081526004016109d59061209a565b60405180910390fd5b6004543414610a22576040517f08c379a0000000000000000000000000000000000000000000000000000000008152600401610a19906120ba565b60405180910390fd5b60006006600084815260200190815260200160002060060160006101000a81548160ff021916908315150217905550806006600084815260200190815260200160002060050181905550336006600084815260200190815260200160002060030160006101000a81548173ffffffffffffffffffffffffffffffffffffffff021916908373ffffffffffffffffffffffffffffffffffffffff16021790555060006006600084815260200190815260200160002060040160006101000a81548173ffffffffffffffffffffffffffffffffffffffff021916908373ffffffffffffffffffffffffffffffffffffffff160217905550610b216002611b88565b8273ffffffffffffffffffffffffffffffffffffffff166323b872dd3330856040518463ffffffff1660e01b8152600401610b5e93929190611fce565b600060405180830381600087803b158015610b7857600080fd5b505af1158015610b8c573d6000803e3d6000fd5b50505050505050565b60606000610ba36001611b7a565b905060008060005b83811015610c4c573373ffffffffffffffffffffffffffffffffffffffff1660066000600184610bdb919061217f565b815260200190815260200160002060030160009054906101000a900473ffffffffffffffffffffffffffffffffffffffff1673ffffffffffffffffffffffffffffffffffffffff161415610c3957600183610c36919061217f565b92505b8080610c4490612263565b915050610bab565b5060008267ffffffffffffffff811115610c8f577f4e487b7100000000000000000000000000000000000000000000000000000000600052604160045260246000fd5b604051908082528060200260200182016040528015610cc857816020015b610cb5611bfa565b815260200190600190039081610cad5790505b50905060005b84811015610f7b573373ffffffffffffffffffffffffffffffffffffffff1660066000600184610cfe919061217f565b815260200190815260200160002060030160009054906101000a900473ffffffffffffffffffffffffffffffffffffffff1673ffffffffffffffffffffffffffffffffffffffff161415610f68576000600182610d5b919061217f565b905060006006600083815260200190815260200160002090508060405180610100016040529081600082015481526020016001820160009054906101000a900473ffffffffffffffffffffffffffffffffffffffff1673ffffffffffffffffffffffffffffffffffffffff1673ffffffffffffffffffffffffffffffffffffffff168152602001600282015481526020016003820160009054906101000a900473ffffffffffffffffffffffffffffffffffffffff1673ffffffffffffffffffffffffffffffffffffffff1673ffffffffffffffffffffffffffffffffffffffff1681526020016004820160009054906101000a900473ffffffffffffffffffffffffffffffffffffffff1673ffffffffffffffffffffffffffffffffffffffff1673ffffffffffffffffffffffffffffffffffffffff168152602001600582015481526020016006820160009054906101000a900460ff161515151581526020016006820160019054906101000a900473ffffffffffffffffffffffffffffffffffffffff1673ffffffffffffffffffffffffffffffffffffffff1673ffffffffffffffffffffffffffffffffffffffff1681525050848681518110610f4b577f4e487b7100000000000000000000000000000000000000000000000000000000600052603260045260246000fd5b6020026020010181905250600185610f63919061217f565b945050505b8080610f7390612263565b915050610cce565b508094505050505090565b60026000541415610fcc576040517f08c379a0000000000000000000000000000000000000000000000000000000008152600401610fc3906120da565b60405180910390fd5b600260008190555060008111611017576040517f08c379a000000000000000000000000000000000000000000000000000000000815260040161100e906120fa565b60405180910390fd5b600454341461105b576040517f08c379a0000000000000000000000000000000000000000000000000000000008152600401611052906120ba565b60405180910390fd5b6110656001611be4565b60006110716001611b7a565b90506040518061010001604052808281526020018573ffffffffffffffffffffffffffffffffffffffff1681526020018481526020013373ffffffffffffffffffffffffffffffffffffffff168152602001600073ffffffffffffffffffffffffffffffffffffffff1681526020018381526020016000151581526020013373ffffffffffffffffffffffffffffffffffffffff16815250600660008381526020019081526020016000206000820151816000015560208201518160010160006101000a81548173ffffffffffffffffffffffffffffffffffffffff021916908373ffffffffffffffffffffffffffffffffffffffff1602179055506040820151816002015560608201518160030160006101000a81548173ffffffffffffffffffffffffffffffffffffffff021916908373ffffffffffffffffffffffffffffffffffffffff16021790555060808201518160040160006101000a81548173ffffffffffffffffffffffffffffffffffffffff021916908373ffffffffffffffffffffffffffffffffffffffff16021790555060a0820151816005015560c08201518160060160006101000a81548160ff02191690831515021790555060e08201518160060160016101000a81548173ffffffffffffffffffffffffffffffffffffffff021916908373ffffffffffffffffffffffffffffffffffffffff1602179055509050508373ffffffffffffffffffffffffffffffffffffffff166323b872dd3330866040518463ffffffff1660e01b81526004016112b693929190611fce565b600060405180830381600087803b1580156112d057600080fd5b505af11580156112e4573d6000803e3d6000fd5b50505050828473ffffffffffffffffffffffffffffffffffffffff16827f7d97da72e950426bedd7ad7228ffd65fade59107955150507e9495a8f1b39aa83360008760003360405161133a959493929190612005565b60405180910390a4506001600081905550505050565b3373ffffffffffffffffffffffffffffffffffffffff166006600084815260200190815260200160002060040160009054906101000a900473ffffffffffffffffffffffffffffffffffffffff1673ffffffffffffffffffffffffffffffffffffffff16146113f4576040517f08c379a00000000000000000000000000000000000000000000000000000000081526004016113eb9061209a565b60405180910390fd5b336006600084815260200190815260200160002060030160006101000a81548173ffffffffffffffffffffffffffffffffffffffff021916908373ffffffffffffffffffffffffffffffffffffffff160217905550806006600084815260200190815260200160002060040160006101000a81548173ffffffffffffffffffffffffffffffffffffffff021916908373ffffffffffffffffffffffffffffffffffffffff1602179055508273ffffffffffffffffffffffffffffffffffffffff166323b872dd3383856040518463ffffffff1660e01b81526004016114db93929190611fce565b600060405180830381600087803b1580156114f557600080fd5b505af1158015611509573d6000803e3d6000fd5b50505050505050565b60026000541415611558576040517f08c379a000000000000000000000000000000000000000000000000000000000815260040161154f906120da565b60405180910390fd5b60026000819055506000600660008381526020019081526020016000206005015490506000600660008481526020019081526020016000206002015490506006600084815260200190815260200160002060030160009054906101000a900473ffffffffffffffffffffffffffffffffffffffff1673ffffffffffffffffffffffffffffffffffffffff166108fc349081150290604051600060405180830381858888f19350505050158015611612573d6000803e3d6000fd5b508373ffffffffffffffffffffffffffffffffffffffff166323b872dd3033846040518463ffffffff1660e01b815260040161165093929190611fce565b600060405180830381600087803b15801561166a57600080fd5b505af115801561167e573d6000803e3d6000fd5b50505050336006600085815260200190815260200160002060040160006101000a81548173ffffffffffffffffffffffffffffffffffffffff021916908373ffffffffffffffffffffffffffffffffffffffff16021790555060016006600085815260200190815260200160002060060160006101000a81548160ff0219169083151502179055506117106002611be4565b600360009054906101000a900473ffffffffffffffffffffffffffffffffffffffff1673ffffffffffffffffffffffffffffffffffffffff166108fc6004549081150290604051600060405180830381858888f1935050505015801561177a573d6000803e3d6000fd5b50505060016000819055505050565b606060006117976001611b7a565b905060008060005b83811015611840573373ffffffffffffffffffffffffffffffffffffffff16600660006001846117cf919061217f565b815260200190815260200160002060060160019054906101000a900473ffffffffffffffffffffffffffffffffffffffff1673ffffffffffffffffffffffffffffffffffffffff16141561182d5760018361182a919061217f565b92505b808061183890612263565b91505061179f565b5060008267ffffffffffffffff811115611883577f4e487b7100000000000000000000000000000000000000000000000000000000600052604160045260246000fd5b6040519080825280602002602001820160405280156118bc57816020015b6118a9611bfa565b8152602001906001900390816118a15790505b50905060005b84811015611b6f573373ffffffffffffffffffffffffffffffffffffffff16600660006001846118f2919061217f565b815260200190815260200160002060060160019054906101000a900473ffffffffffffffffffffffffffffffffffffffff1673ffffffffffffffffffffffffffffffffffffffff161415611b5c57600060018261194f919061217f565b905060006006600083815260200190815260200160002090508060405180610100016040529081600082015481526020016001820160009054906101000a900473ffffffffffffffffffffffffffffffffffffffff1673ffffffffffffffffffffffffffffffffffffffff1673ffffffffffffffffffffffffffffffffffffffff168152602001600282015481526020016003820160009054906101000a900473ffffffffffffffffffffffffffffffffffffffff1673ffffffffffffffffffffffffffffffffffffffff1673ffffffffffffffffffffffffffffffffffffffff1681526020016004820160009054906101000a900473ffffffffffffffffffffffffffffffffffffffff1673ffffffffffffffffffffffffffffffffffffffff1673ffffffffffffffffffffffffffffffffffffffff168152602001600582015481526020016006820160009054906101000a900460ff161515151581526020016006820160019054906101000a900473ffffffffffffffffffffffffffffffffffffffff1673ffffffffffffffffffffffffffffffffffffffff1673ffffffffffffffffffffffffffffffffffffffff1681525050848681518110611b3f577f4e487b7100000000000000000000000000000000000000000000000000000000600052603260045260246000fd5b6020026020010181905250600185611b57919061217f565b945050505b8080611b6790612263565b9150506118c2565b508094505050505090565b600081600001549050919050565b60008160000154905060008111611bd4576040517f08c379a0000000000000000000000000000000000000000000000000000000008152600401611bcb9061207a565b60405180910390fd5b6001810382600001819055505050565b6001816000016000828254019250508190555050565b60405180610100016040528060008152602001600073ffffffffffffffffffffffffffffffffffffffff16815260200160008152602001600073ffffffffffffffffffffffffffffffffffffffff168152602001600073ffffffffffffffffffffffffffffffffffffffff16815260200160008152602001600015158152602001600073ffffffffffffffffffffffffffffffffffffffff1681525090565b600081359050611ca8816123f4565b92915050565b600081359050611cbd8161240b565b92915050565b60008060408385031215611cd657600080fd5b6000611ce485828601611c99565b9250506020611cf585828601611cae565b9150509250929050565b600080600060608486031215611d1457600080fd5b6000611d2286828701611c99565b9350506020611d3386828701611cae565b9250506040611d4486828701611c99565b9150509250925092565b600080600060608486031215611d6357600080fd5b6000611d7186828701611c99565b9350506020611d8286828701611cae565b9250506040611d9386828701611cae565b9150509250925092565b6000611da98383611f0e565b6101008301905092915050565b611dbf8161221b565b82525050565b611dce81612209565b82525050565b611ddd81612209565b82525050565b6000611dee82612145565b611df8818561215d565b9350611e0383612135565b8060005b83811015611e34578151611e1b8882611d9d565b9750611e2683612150565b925050600181019050611e07565b5085935050505092915050565b611e4a8161222d565b82525050565b611e598161222d565b82525050565b6000611e6c601b8361216e565b9150611e77826122db565b602082019050919050565b6000611e8f602a8361216e565b9150611e9a82612304565b604082019050919050565b6000611eb260248361216e565b9150611ebd82612353565b604082019050919050565b6000611ed5601f8361216e565b9150611ee0826123a2565b602082019050919050565b6000611ef8601c8361216e565b9150611f03826123cb565b602082019050919050565b61010082016000820151611f256000850182611fb0565b506020820151611f386020850182611dc5565b506040820151611f4b6040850182611fb0565b506060820151611f5e6060850182611db6565b506080820151611f716080850182611db6565b5060a0820151611f8460a0850182611fb0565b5060c0820151611f9760c0850182611e41565b5060e0820151611faa60e0850182611db6565b50505050565b611fb981612259565b82525050565b611fc881612259565b82525050565b6000606082019050611fe36000830186611dd4565b611ff06020830185611dd4565b611ffd6040830184611fbf565b949350505050565b600060a08201905061201a6000830188611dd4565b6120276020830187611dd4565b6120346040830186611fbf565b6120416060830185611e50565b61204e6080830184611dd4565b9695505050505050565b600060208201905081810360008301526120728184611de3565b905092915050565b6000602082019050818103600083015261209381611e5f565b9050919050565b600060208201905081810360008301526120b381611e82565b9050919050565b600060208201905081810360008301526120d381611ea5565b9050919050565b600060208201905081810360008301526120f381611ec8565b9050919050565b6000602082019050818103600083015261211381611eeb565b9050919050565b600060208201905061212f6000830184611fbf565b92915050565b6000819050602082019050919050565b600081519050919050565b6000602082019050919050565b600082825260208201905092915050565b600082825260208201905092915050565b600061218a82612259565b915061219583612259565b9250827fffffffffffffffffffffffffffffffffffffffffffffffffffffffffffffffff038211156121ca576121c96122ac565b5b828201905092915050565b60006121e082612259565b91506121eb83612259565b9250828210156121fe576121fd6122ac565b5b828203905092915050565b600061221482612239565b9050919050565b600061222682612239565b9050919050565b60008115159050919050565b600073ffffffffffffffffffffffffffffffffffffffff82169050919050565b6000819050919050565b600061226e82612259565b91507fffffffffffffffffffffffffffffffffffffffffffffffffffffffffffffffff8214156122a1576122a06122ac565b5b600182019050919050565b7f4e487b7100000000000000000000000000000000000000000000000000000000600052601160045260246000fd5b7f436f756e7465723a2064656372656d656e74206f766572666c6f770000000000600082015250565b7f4f6e6c79206974656d206f776e65722063616e20706572666f726d207468697360008201527f206f7065726174696f6e00000000000000000000000000000000000000000000602082015250565b7f5072696365206d75737420626520657175616c20746f206c697374696e67207060008201527f7269636500000000000000000000000000000000000000000000000000000000602082015250565b7f5265656e7472616e637947756172643a207265656e7472616e742063616c6c00600082015250565b7f5072696365206d757374206265206174206c6561737420312077656900000000600082015250565b6123fd81612209565b811461240857600080fd5b50565b61241481612259565b811461241f57600080fd5b5056fea2646970667358221220d6ce6323c0f86efdbc50c9999b5f802d0421b634da72939d9e1d0f734372216364736f6c63430008040033",
  "linkReferences": {},
  "deployedLinkReferences": {}
}